:1000000045C0000060C000005EC000005CC0000091
:100010005AC0000058C0000056C0000054C0000084
:1000200052C0000050C000004EC000004CC0000094
:100030004AC0000048C0000046C0000044C00000A4
:1000400042C0000040C000003EC000003CC00000B4
:100050003AC0000038C0000036C0000034C00000C4
:1000600032C0000030C000002EC000002CC00000D4
:100070002AC0000028C0000026C0000024C00000E4
:1000800022C0000020C000001EC0000011241FBEBE
:10009000CFEFD0E1DEBFCDBF11E0A0E0B1E0EAE0FC
:1000A000FFE000E00BBF02C007900D92A63CB10735
:1000B000D9F723E0A6ECB1E001C01D92AA35B20742
:1000C000E1F798D220C79CCF82E082B98AB18861DB
:1000D0008AB9E5E9F0E08081866080838FE589B99F
:1000E000089588E081BB10929B0088E180939A007C
:1000F00086E080939D001092980087E0809399009D
:10010000089590919B0095FFFCCF80939C000895EB
:100110005D9BFECF8CB908955F9BFECF8CB1089597
:100120000F931F93CF93C82F8EE190E0E7D28C01FD
:10013000892B29F186E3C89FF0011124CF018A5948
:100140009D4FE85BFD4F25A92F9324A92F9323A949
:100150002F9322A92F939F938F9386E091E09F93F3
:100160008F931F930F93F4D38DB79EB70A960FB654
:10017000F8949EBF0FBE8DBF802F912F02C080E0EC
:1001800090E0CF911F910F9108950F931F93CF93FC
:10019000C82F8EE190E0B2D28C01892B09F186E361
:1001A000C89FF0011124CF018A599D4FE85BFD4F94
:1001B00023A92F9322A92F939F938F9382E191E0FC
:1001C0009F938F931F930F93C3D38DB79EB70896BA
:1001D0000FB6F8949EBF0FBE8DBF802F912F02C027
:1001E00080E090E0CF911F910F9108950F931F939E
:1001F000CF93C82F8EE190E081D28C01892B11F131
:100200008AE1C89FF0011124EA53FE4F85898F933C
:1002100084898F9387898F9386898F93FF93EF9338
:1002200085E291E09F938F931F930F9391D38DB7A6
:100230009EB70A960FB6F8949EBF0FBE8DBF802F53
:10024000912F02C080E090E0CF911F910F9108950F
:100250000F931F93CF93C82F8EE190E04FD28C0164
:10026000892BF1F08AE1C89FF0011124EA53FE4F77
:10027000818D8F93808D8F93FF93EF9380E391E037
:100280009F938F931F930F9363D38DB79EB7089659
:100290000FB6F8949EBF0FBE8DBF802F912F02C066
:1002A00080E090E0CF911F910F9108950F931F93DD
:1002B000CF93DF938C01C0E0D0E00DC026E32C9FEC
:1002C000C0012D9F900D1124B801885B9D4F37D33D
:1002D000892B39F02196C530D10584F38FEF9FEF3C
:1002E00002C08C2F9D2FDF91CF911F910F91089508
:1002F0001F93CF93DF93EC01162F63E471E01FD3BC
:10030000892B19F481E304DF11C0113039F402C0E4
:10031000FFDE219688818111FBCF08C0123031F4B5
:1003200002C0EFDE219688818111FBCFDF91CF9152
:100330001F91089590E026E3289FF001299FF00D7A
:100340001124E85BFD4F42A953A970E02AE1269FE2
:10035000F001279FF00D1124EA53FE4F26893789BB
:1003600042175307ECF12AE1269FF001279FF00D79
:100370001124EA53FE4F208D318D1216130684F599
:1003800046E3489FF001499FF00D1124E85BFD4FC3
:1003900044A955A9AAE1A69FF001A79FF00D112439
:1003A000EA53FE4F0488F589E02D4E1B5F0B1416AF
:1003B0001506B4F4A6E3A89FF001A99FF00D11243F
:1003C000E85BFD4F55AB44AB8AE1869FF001879F08
:1003D000F00D1124EA53FE4F21503109318F208F47
:1003E0000895CF93DF93C8E4D2E080E1E5E4F1E043
:1003F000DE0101900D928A95E1F7E6E6F2E084E5F0
:100400009FE6918380838DE690E09383828325E14C
:1004100030E03BAB2AAB80E197E29DAB8CAB81E156
:10042000E5E5F1E0AEE7B2E001900D928A95E1F7E3
:1004300085E0E6E6F1E0ACE9B2E001900D928A9544
:10044000E1F781E190E09093B1028093B00280E304
:1004500095E79093B3028093B20281E1EBE6F1E07D
:10046000A4EBB2E001900D928A95E1F785E0ECE70C
:10047000F1E0A2EDB2E001900D928A95E1F780E201
:1004800090E09093E7028093E60280E49CE99093E9
:10049000E9028093E80281E1E1E8F1E0AAEEB2E04E
:1004A00001900D928A95E1F785E0E2E9F1E0A8E09C
:1004B000B3E001900D928A95E1F78CE190E0909382
:1004C0001D0380931C0380E29EE490931F0380939E
:1004D0001E0381E1E7E9F1E0A0E2B3E001900D92B3
:1004E0008A95E1F785E0E8EAF1E0AEE3B3E0019058
:1004F0000D928A95E1F788E390E0909353038093FF
:10050000520380E09AEF9093550380935403C6EC16
:10051000D1E08EE49FE29983888381E490E09B831D
:100520008A831D8A1C8A1F8A1E8A8AE090E0998F1E
:10053000888F86E0EDEAF1E0A0EEB1E001900D9247
:100540008A95E1F78CED95E09FA78EA719AA18AAC6
:1005500084E090E09BAB8AAB46E0E3EBF1E0AAEFEE
:10056000B1E001900D924A95E1F740EA5FE05093C7
:100570000F0240930E0243E150E05093110240936A
:100580001002309313022093120226E0E9EBF1E00F
:10059000A4E1B2E001900D922A95E1F724EA36E059
:1005A000309329022093280210922B0210922A02E3
:1005B00090932D0280932C0287E0EFEBF1E0AEE206
:1005C000B2E001900D928A95E1F784EC99E0909366
:1005D0004302809342028FE090E090934502809323
:1005E000440289E090E09093470280934602DF91B5
:1005F000CF910895CF93DF93CDB7DEB76E970FB647
:10060000F894DEBF0FBECDBF5FDD6BDDEADEFE011D
:1006100031968EE1DF011D928A95E9F7EE24EA9486
:10062000FE2C10E079DD91E0910FE1E0F0E0EC0FBD
:10063000FD1FE10FF11D8083192F853499F7DE012D
:100640001196FD01E90FF11D1082FD0101900020BE
:10065000E9F73197EA1BFB0BEE30F10530F17497A7
:1006600020F58981813609F5CD0120DE7C019923B1
:100670002CF461E083E491E03BDED3CF51DD8C01CB
:10068000892B79F28E2D81DD6C01892B19F4C8013B
:10069000CDD0C7CF61E0C8012BDE62E0C60128DE05
:1006A000C801C4D0C601C2D0BCCF8981833609F04D
:1006B000B8CFFF201CF488E52BDDB3CF0A8110E012
:1006C00000531109802F92DD6C01892B09F4A9CF09
:1006D000802FBEDD5C01892B19F4C601A7D0A1CF04
:1006E000602F8E2D27DE61E0C60102DE62E0C501CB
:1006F000FFDDC6019BD0C50199D093CF0F931F9307
:10070000CF93DF938230910510F482E090E0E09186
:100710005803F091590320E030E0A0E0B0E03097BA
:1007200019F1408151810281138148175907C8F09E
:100730008417950769F4109731F012960C9312976D
:1007400013961C9327C0009358031093590322C09B
:100750002115310519F04217530718F49A01BD010C
:10076000EF01DF01F801DBCF21153105F9F0281B7E
:10077000390B2430310580F48A819B816115710524
:1007800021F0FB019383828304C0909359038093EB
:100790005803FE01329644C0FE01E20FF31F81931D
:1007A000919322503109398328833AC0209156030E
:1007B00030915703232B41F4209102013091030122
:1007C000309357032093560320910001309101018B
:1007D0002115310541F42DB73EB7409104015091E8
:1007E0000501241B350BE0915603F0915703E217E6
:1007F000F307A0F42E1B3F0B2817390778F0AC0144
:100800004E5F5F4F2417350748F04E0F5F1F509320
:100810005703409356038193919302C0E0E0F0E0C8
:10082000CF01DF91CF911F910F910895CF93DF9367
:10083000009709F481C0FC01329713821282A091C3
:100840005803B0915903109781F420813181820FB0
:10085000931F20915603309157032817390751F5FC
:10086000F0935703E093560367C0ED0120E030E0BA
:10087000CE17DF0740F44A815B819E014115510587
:10088000F1F0EA01F5CFD383C28340815181840F17
:10089000951FC817D90759F488819981840F951F2E
:1008A0000296918380838A819B8193838283211521
:1008B000310529F4F0935903E09358033DC0E90151
:1008C000FB83EA8349915991C40FD51FEC17FD07AB
:1008D00061F480819181840F951F0296E9019983CB
:1008E0008883828193819B838A83E0E0F0E0129683
:1008F0008D919C911397009719F0FD01DC01F7CFC2
:100900008D919C9111979D012E5F3F4F820F931FF8
:1009100020915603309157032817390769F430970F
:1009200029F4109259031092580302C013821282C4
:10093000B0935703A0935603DF91CF910895FB0125
:10094000DC018D91019080190110D9F3990B089564
:100950000F931F93CF93DF93CDB7DEB72E970FB6CC
:10096000F894DEBF0FBECDBF0D891E8986E08C8353
:100970001A8309838FEF9FE79E838D83AE01475EC5
:100980005F4F6F89788DCE01019610D0EF81F88589
:10099000E00FF11F10822E960FB6F894DEBF0FBE47
:1009A000CDBFDF91CF911F910F9108952F923F926C
:1009B0004F925F926F927F928F929F92AF92BF926F
:1009C000CF92DF92EF92FF920F931F93CF93DF931B
:1009D000CDB7DEB72B970FB6F894DEBF0FBECDBFF5
:1009E0006C017B018A01FC0117821682838181FFE1
:1009F000BFC1CE0101963C01F6019381F70193FD41
:100A0000859193FF81917F01882309F4ADC18532DF
:100A100039F493FD859193FF81917F01853221F413
:100A2000B60190E0D6D1E8CF912C212C312CFFE1FA
:100A3000F315D8F08B3279F038F4803279F08332C4
:100A4000A1F4232D20611DC08D3261F0803369F443
:100A5000232D216016C0832D8260382EE32DE460A3
:100A60003E2E2AC0F32DF8601DC037FC2DC020EDAE
:100A7000280F2A3040F08E32B9F436FC75C1232D90
:100A80002064322E19C036FE06C08AE0989E200DE2
:100A90001124922E11C0EAE02E9E200D1124222E48
:100AA000F32DF0623F2E08C08C3621F4832D806830
:100AB000382E02C0883641F4F70193FD859193FFEB
:100AC00081917F018111B3CF982F9F7D95549330F1
:100AD00028F40C5F1F4F9FE399830DC0833631F0DC
:100AE000833771F0833509F055C020C0F80180814B
:100AF00089830E5F1F4F88248394912C530112C069
:100B00002801F2E04F0E511CF801A080B18036FEA2
:100B100003C0692D70E002C06FEF7FEFC5014ED1B9
:100B20004C018201F32DFF773F2E15C0280122E0F2
:100B3000420E511CF801A080B18036FE03C0692D21
:100B400070E002C06FEF7FEFC5012DD14C01F32D96
:100B5000F0683F2E820133FC19C0822D90E0881688
:100B60009906A0F4B60180E290E033D12A94F5CF43
:100B7000F50137FC859137FE81915F01B60190E068
:100B800028D121102A9421E0821A9108811491041D
:100B900079F7E1C0843611F0893639F5F80137FE6E
:100BA00007C060817181828193810C5F1F4F08C0F3
:100BB00060817181072E000C880B990B0E5F1F4F0F
:100BC000F32DFF763F2E97FF09C090958095709585
:100BD00061957F4F8F4F9F4FF0683F2E2AE030E0A6
:100BE000A30133D1882E861844C0853731F4232DD4
:100BF0002F7EB22E2AE030E025C0932D997FB92EAA
:100C00008F36C1F018F4883579F0AEC0803719F00E
:100C1000883721F0A9C0E92FE061BE2EB4FE0DC0D7
:100C2000FB2DF460BF2E09C034FE0AC0292F2660B8
:100C3000B22E06C028E030E005C020E130E002C05E
:100C400020E132E0F801B7FE07C060817181828146
:100C500093810C5F1F4F06C06081718180E090E03E
:100C60000E5F1F4FA301F1D0882E8618FB2DFF7752
:100C70003F2E36FE0DC0232D2E7FA22E891458F450
:100C800034FE0BC032FC09C0832D8E7EA82E05C019
:100C9000B82CA32C03C0B82C01C0B92CA4FE0FC0E3
:100CA000FE01E80DF11D8081803321F49A2D997E9B
:100CB000A92E09C0A2FE06C0B394B39404C08A2D25
:100CC000867809F0B394A3FC10C0A0FE06C0B2144D
:100CD00080F4280C922C9B180DC0B21458F4B60165
:100CE00080E290E076D0B394F8CFB21418F42B18C9
:100CF00002C0982C212CA4FE0FC0B60180E390E026
:100D000068D0A2FE16C0A1FC03C088E790E002C034
:100D100088E590E0B6010CC08A2D867851F0A1FEDE
:100D200002C08BE201C080E2A7FC8DE2B60190E038
:100D300050D0891430F4B60180E390E04AD09A9400
:100D4000F8CF8A94F301E80DF11D8081B60190E09F
:100D500040D08110F6CF222009F44ECEB60180E2B9
:100D600090E037D02A94F7CFF6018681978102C0B0
:100D70008FEF9FEF2B960FB6F894DEBF0FBECDBF5F
:100D8000DF91CF911F910F91FF90EF90DF90CF9067
:100D9000BF90AF909F908F907F906F905F904F909B
:100DA0003F902F900895FC01059061507040011014
:100DB000D8F7809590958E0F9F1F0895FC01615084
:100DC000704001900110D8F7809590958E0F9F1F6D
:100DD00008950F931F93CF93DF93FB01238121FD90
:100DE00003C08FEF9FEF2CC022FF16C046815781B2
:100DF000248135814217530744F4A081B1819D01BC
:100E00002F5F3F4F318320838C93268137812F5F63
:100E10003F4F3783268314C08B01EC01FB01008414
:100E2000F185E02D0995892BE1F6D80116968D9173
:100E30009C911797019617969C938E931697CE01C7
:100E4000DF91CF911F910F910895FA01AA272830C1
:100E500051F1203181F1E8946F936E7F6E5F7F4F87
:100E60008F4F9F4FAF4FB1E03ED0B4E03CD0670F03
:100E7000781F891F9A1FA11D680F791F8A1F911D56
:100E8000A11D6A0F711D811D911DA11D20D009F4A6
:100E900068943F912AE0269F11243019305D3193E8
:100EA000DEF6CF010895462F4770405D4193B3E0D1
:100EB0000FD0C9F7F6CF462F4F70405D4A3318F078
:100EC000495D31FD4052419302D0A9F7EACFB4E029
:100ED000A6959795879577956795BA95C9F70097E1
:100EE0006105710508959B01AC010A2E0694579582
:100EF000479537952795BA95C9F7620F731F841FD9
:0A0F0000951FA01D0895F894FFCF7F
:100F0A0000005A03200062202573202564202575DD
:100F1A000A004E616D653A20257320416765203AC3
:100F2A002025640A00642025732025642025640096
:100F3A0049443A2025732053746F636B203A202565
:100F4A00640A0031006131373920313520323332B9
:100F5A002031374500613231312031353320323387
:100F6A003120313745004A61636B006132313320E9
:100F7A003135332032333120313745004A6F686EBC
:100F8A000061323131203135332035363120313765
:100F9A0045004A616E6500613230342031353320B4
:100FAA0032333120313745004D61727900647269FC
:100FBA006E6B00636967617200736E61636B0063D5
:060FCA006F66666565001C
:00000001FF
